:0ADA00000500FFF000008A427909DA
:1ADC0000020003001302020012ED78ED4EED0000951500DC001C0EDC3CC3C4
:20DE00002A1531800A00F2D202025F42C8D85F021E4FDCD7824EACD8D253C8D8F2901000D3
:20DE2000C8D80220C243C8D85F42CFD85F02184FFCD78248AED8D253CFD8F2901000CFD843
:20DE40000220C243CFD8CF0E5F011F5298D80F5ECE0F44180E110F8E824F98D8A292A4D883
:20DE600019245F09C90F198204DA39B000800A7A3AE3B2900300A4D817203FB000800E7EAF
:20DE80003EE3825F6CD8826E6ED8925368D882636AD80A3CC90F590939B000800A7A3AE330
:20DEA00019826CD81A726ED8CC09CD0ACE09CF0AB01288EC825C5CD8826D5ED8CC083CB028
:20DEC00000800D7D3DE3CE09CF0AB01288EC825C60D8826D62D8CC083CB000800D7D3DE309
:20DEE000CE0CCF0DB01288EC825C64D8826D66D8D253CDD8F2902A00CDD8022480005AE3F1
:20DF0000C243CDD81C4260D81D4262D83E402A000F43B012F2EA825C94D8826D96D80018D1
:20DF2000C24360D81C425CD81D425ED83E402A000F43B0129AEA0E430F43B012FAE6CA0C22
:20DF40001C4264D81D4266D83E402A000F43B0129AEA0E430F43B012FAE6C24CC6D84C4CC1
:20DF6000CD0AB01226ED825C8CD882638ED80018C2435CD80018C24364D8D253CBD8F29074
:20DF80003C00CBD8EA29C243CBD8B2401700BED89293A6D86238A293A4D83F24B2900300B2
:20DFA000A4D82A24A292A4D85A201C42C4D80D433E40E8030F43B01288EC1E42B2D80F43F6
:20DFC000B0129AEA3CF0FF0F3C5000400F4C600F78D81C42C2D83D401400B01226ED5D42DE
:20DFE000C6D8B012FCEC0F4C600F90D8B2400500A4D88243A6D8363C1C426CD81D426ED838
:20E000001E4268D81F426AD8B012F2EA824C6CD8824D6ED8A242A4D8253C1C4288D81D421A
:20E020008AD81E4284D81F4286D8B012F2EA824C88D8824D8AD81C4274D81D4276D81E424F
:20E0400070D81F4272D8B012F2EA824C74D8824D76D8B2400300A4D8CC3F9253A6D89293F4
:20E06000A4D81A25B01276E91C9306349293AAD828398243A8D8253D5F42C7D83F8010001D
:20E08000FE241F83E2241F83D7243F800A00CC241F83C0241F42A4D80F9389242F833F902D
:20E0A000030079283F8003003D241F830A215F42C7D83F80210004243F80DE002F24013D56
:20E0C000D293CAD81C24B2401002BED89253BAD81C42BAD8F140210002003D401002B01253
:20E0E00026ED3C501600CD012D531E43B012A8ECB2900900BAD8E520D243CAD8E23C9253CA
:20E10000BED88243BAD88243A4D8C243CAD8F14022000300CD013D500300833CB2401002B3
:20E12000BED8CF3CF2902400C7D8CB209253BED8F140250000003C401600CD011E43B012BA
:20E14000A8ECD24288D802DAD24274D803DA92426CD804DAD24290D808DA1C4278D8824CCE
:20E1600006DA0D43B0124EEB5F4290D80C5F0D63B0124EEB5F4209DA0C5F0D633F403F0078
:20E180005FF200DA7FD04000C24F00DA824C7CD8824D7ED8963CF2902400C7D892209253E5
:20E1A000BED8F14024000100CD011D533A3C5F42C7D83F80200021243F8003008220A24312
:20E1C000A4D88243C0D88243A2D88243A0D83C40C4D83D403AD82E43B01260ED3C40C2D8AD
:20E1E0003D403CD82E43B01260ED9253BED8F14023000400CD012D52143C9243A4D8824388
:20E20000A0D89253BED8F14020000500CD013D500500073C9253BED8F1430600CD013D5002
:20E2200006003C4016004A3C9253BED8F1430700CD013D500700F53FA253BED8B01266E3DE
:20E240003F4017003D40021C383C3C4002DA3D403AD83E42B01260ED1C4206DA0D43B01253
:20E260004EEB5F4208DA0C5F0D63B0124EEB5F4209DA0C5F0D63F2D0800000DA873FB250C9
:20E280000900BED8B01266E33C5053C33D4002DA3E42B01260ED153C8243A8D8B2401002B0
:20E2A000BED8B2400600A4D8F14021000800B0127EE33F401600CD013D520C5F1E43B01257
:20E2C000A8EC9242A8D8AAD8925380D8826382D8829396D804380620929394D8032C8243EE
:20E2E000B2D80B3C1C4294D81D4296D83E403C000F43B012F2EA824CB2D81F42B2D80C437A
:20E300000D430E43825F54D8826C56D8826D58D8826E5AD81C428CD81D428ED83E403C00B1
:20E320000F43B0129AEA824C9CD80018C24394D80018C2438CD8C293CCD80F24F2F0BF002C
:20E3400002025C43B0123AED3F40F4011F529003824F9203B24010008203F2C20202315093
:20E360000A0028173041B0127EE33C5016003D40C7D81E43B012A8ECB0127EE330411C4259
:20E38000BAD83D401002B01226ED30414F152182B2900C001E07F8201F4212071E420A0799
:20E3A0007EF007000E9395242E8237241E83EA20E2D202023F90CD012028D293CCD82524E9
:20E3C0003F9003032228E2D20302D243CED80018C24360D80018C2435CD80018C24364D8AB
:20E3E0000018C24394D80018C2438CD8824398D882439AD8D243CCD80B3C4C43B0123AED2F
:20E40000F2D040000202C243CCD8C293CED8BC24A2C3000782430A07B33CE2D202023FB09A
:20E42000000204243E40FF010EFF043C3E40FF010E8F3EE3814E02009293A4D81824A293C8
:20E44000A4D82220B2903C00A0D81C38B2907413A0D818343EB000800F7F3FE3825E74D8DD
:20E46000826F76D8925370D8826372D80B3CB290D809A0D80934B01292E5CD012D532E43EA
:20E48000B012A8EC9253A0D8B2900300A4D80A24A292A4D807245E4203DA8E111F41020081
:20E4A0000F8E043C1F4102001F8274D85E42C9D85E028E4FDCD7D253C9D8F2901000C9D806
:20E4C0000220C243C9D89253B4D8B1C0D0000E005B3CE2D202023FB0000204203FE33F509F
:20E4E0000102033C3FE33FD000FE814F00009293A4D81924A293A4D82220B2903C00A0D814
:20E500001C38B2907413A0D81834CE0F3EB000800F7F3FE3825E88D8826F8AD8925384D84B
:20E52000826386D80A3CB290D809A0D80834B01292E5CD012E43B012A8EC9253A0D8B2900E
:20E540000300A4D80924A292A4D806245E4202DA8E112F410F8E033C2F411F8288D85E42BD
:20E56000D0D85E028E4FFCD7D253D0D8F2901000D0D80220C243D0D8A2C30007A2420A07AC
:20E58000A2D3000792530007E2C2020221524B1700131C42A0D83D40FC00B012E4EB3D4026
:20E5A0000C00B01226ED1C52A0D85C023C5017003041B2402B5A5C01B2D030002A0392D30A
:20E5C0002A0392D32C038243240382432203B240FF002603F2D033000C02F2D033000A0286
:20E5E000F24040000202F2404C000402F2430602C2430302E2420502F2430702C2430B025F
:20E600008243A4D88243A6D8C243CCD8C243CED88243B4D88243B0D8C243C9D8C243C8D839
:20E62000C243D0D8C243CFD8C243CDD8C243CBD88243BAD81C4206DA0D43B0124EEB5F42AE
:20E6400008DA0C5F0D63B0124EEB5F4209DA0C5F0D63824C7CD8824D7ED8F240A500610123
:20E66000B24006006201B24033006401B2401100660192426801680192C3680192C36A0127
:20E68000A2C30201A2B30201F923B01210ECB2D010000007B2D000020207B2D0100004071D
:20E6A000B24005000A07A2D3000792D31A07B2400D005203B24010004203B240240140035B
:20E6C000B24024018003034332D0D8000343043C9283B4D8B01200DE8293B4D8F923043CBC
:20E6E0009283B0D8B01218E88293B0D8F923034332D0D8000343F03F03436A1531800A00ED
:20E70000814C0000814D0200814E0400814F06000B43084309433A4000403F9000400928D4
:20E720001B200E93062818200D93032815200C93132C5A03590058005B005A035900580042
:20E740005B000F9AF62B08200E99F32B05200D98F02B02200C9BED2B0C430D4306430743AF
:20E760000A93062009930420089302200B935024CE08C409C50ACF0B0F5C814F08000E6D3D
:20E78000046605671F4106000F952E280C20819404002A280820819E02002628042025418B
:20E7A0001591080021282441154102001E410400048C057D0E760F77048B05780E790F7A0A
:20E7C0008144000081450200814E0400814F0600CE0BCF08C409C50A5E020F6F0464056507
:20E7E0000C5E0D6F06640765570356005D005C005A03590058005B005A03590058005B0022
:20E800000A93B6230993B4230893B2230B93B02331500A00641730413A152182F2D20202FD
:20E820001C42BAD83D401002B01226EDC70C3D40BED82E43B012A8EC2C430C573D40001C6C
:20E840001E43B012A8EC3C4003000C573D40011C1E43B012A8EC2C420C573D4080D82E42B8
:20E86000B012A8EC3C420C573D407CD82E42B012A8EC3C400C000C573D40C6D81E43B012A1
:20E88000A8EC9292B2D89CD8032C9242B2D89CD83C400D000C573D40B2D82E43B012A8EC07
:20E8A0003C400F000C573D409CD82E43B012A8EC5C4209DA184254D8194256D81A4258D896
:20E8C0001B425AD8B01270EB814C0000814D02003C4011000C57CD012E42B012A8EC3C40EF
:20E8E00015000C573D4000DA1E43B012A8ECB2402B5A5C01CC071D42BED8B012AAEBF2C2EB
:20E9000002022152371730412A1519425C01B240805A5C013F400EDC3F9009DC18283F40C5
:20E920001ADC3F9013DC13283A401ADC3A8012DC3A5003005A05384012DC3C487F4C4F4F91
:20E940005F021F4F08DC3D488F121A83F62379C239D0085A82495C013F4000003F9000000C
:20E9600008243A400000023C3F4A8F123A900000FB23281730410A15B2900300A8D80A38CB
:20E980005A421CD847180A5A5F421DD80A5F829AA8D802340C43213C82439ED8CD0A1D83F5
:20E9A0003C401CD8B01262EC5C9A1BD81120D2421ED8C7D83A9005000B383F401FD82A82E0
:20E9C0001E429ED8FE4F3AD892539ED81A83F8238243A8D81C431C529ED80A1730411F15A1
:20E9E0001F42DE052F831B242F8303242F821424243C9292BCD8B8D80528A2C3DA05B2D283
:20EA0000DA051B3C1F42B6D81F52B8D86F4F824FCE059253B8D8113CB2C2DA050E3CF2D04D
:20EA20000C0002021F42CC051E42A8D8CE4F1CD89253A8D8F2F0F30002021E1700131A15EE
:20EA40007A4C1E3C1C530E930D243F9000010A2C29434F4F8F107B4C0FDB1983FA23023CFE
:20EA60002F9202287B4C053CCB0A033C1D53CD4BFFFF1F833F93FA23033C1D53CD4FFFFFAF
:20EA80007F4C4F9AFA237F4C0F93EA237F4C8F106B4C0F5BD723191730410A120912094382
:20EAA0000A431B430F930424094D0D4C0C430D3C5C020D6D0969098E04281CD35B02F82B1E
:20EAC000033C095E5B02F42B1B435C020D6D09690A6A098E0A7F04281CD35B02F62B043CFF
:20EAE000095E0A6F5B02F12B0E490F4A39413A4130410A120A430F9305343EE33FE31E53AF
:20EB00000F631AD30D9305343CE33DE31C530D633AE3B0129AEA1AB304243CE33DE31C5399
:20EB20000D632AB304243EE33FE31E530F633A4130415C020D6D5C020D6D5C020D6D5C0268
:20EB40000D6D5C020D6D5C020D6D5C020D6D5C020D6D5C020D6D5C020D6D5C020D6D5C02F5
:20EB60000D6D5C020D6D5C020D6D5C020D6D3041CF0B3C9011000D38CD0C1D83CE0D5E0D67
:20EB80003DF0F0FF0C8DC809C90ACA0F0F431E83FA231C9306385F035A00590058001C833A
:20EBA000FA23CC08CD09CE0A3041CF0C3C403CC30C5F824CB6D8824DBCD81D83B01262EC15
:20EBC0001F42B6D81F52BCD8CF4CFFFFA2D3DA058243B8D81F42B6D86F4F824FCE05924359
:20EBE000B8D830410B430D9303343DE31D531BD30C9303343CE31C533BE3B012FCEC1BB377
:20EC000002243CE31C532BB302243EE31E533041D2D3C005F2D04000C005F2400300C60508
:20EC2000C243C705B2400092C805D2C3C00592D3DA058243A8D88243AAD8304192C342037D
:20EC4000B2500D005203E2D20202A2C30007B24005000A07A2D3000792530007E2C2020214
:20EC60000013CF0C0C430D9304247E4F0C5E1D83FC23CF0C8F104F4F4CC30C5FCF0C8F108D
:20EC80004F4F0C5F7CE33041021232C20343824CD004824DD204824EE004824FE2041C423D
:20ECA000E4041D42E6040013CF0DCD0E1D830D9309380D5F3C503CC31C53EC4DFFFF1D839B
:20ECC0001E83FA233041F2D00C000202824382039253B0D8B1C0D0000000F2F0F300020262
:20ECE000001331400020B0127EED0C930224B01208E90C43B012B2E5B01282ED0E430F4C46
:20ED00001C435F020E6E0E9D01280E8D0C6CF92B30411F4C01000F9305241D53CD43FFFF86
:20ED20001F83FB233041021232C20343824CC004824DC8041C42CA0400135C930424F2F0EF
:20ED4000FC000D023041F2D003000D023041CF0CCC0D3D4003000D5F1E4F0100304060ED27
:20ED6000CF0C0E9305241F53FF4DFFFF1E83FB23304132D01000FD3F1E4330403EEA1C435C
:06ED800030410343FF3F98
:04FF8000FFFFFFFF81
:04FF8400FFFFFFFF7D
:08FF8800FFFFFFFFFFFFFFFF79
:02FFCE0072EDD2
:02FFD80072EDC8
:02FFDE0072EDC2
:02FFE00072EDC0
:02FFE200C6EC6B
:02FFE40072EDBC
:02FFE80072EDB8
:02FFEA003CECED
:02FFEC008CE3A4
:02FFEE0072EDB2
:02FFF000DEE948
:02FFF20072EDAE
:02FFF40072EDAC
:02FFF60072EDAA
:02FFF80072EDA8
:02FFFA0072EDA6
:02FFFC0072EDA4
:02FFFE00E2EC33
:00000001FF
